:020000040800F2
:1000000060080020AD01000809020008090200088C
:1000100009020008090200080902000800000000A7
:1000200000000000000000000000000009020008BD
:100030000902000800000000090200080902000887
:100040000902000809020008090200080902000864
:100050000902000809020008090200080902000854
:100060000902000809020008090200080902000844
:100070000902000809020008090200080902000834
:100080000902000809020008090200080902000824
:100090000902000809020008090200080902000814
:1000A0000902000809020008090200080902000804
:1000B00009020008090200080902000809020008F4
:1000C00009020008090200080902000809020008E4
:1000D00009020008ED0900080902000809020008E9
:1000E00009020008090200080902000809020008C4
:1000F00009020008090200080902000809020008B4
:1001000009020008090200080902000809020008A3
:100110000902000809020008090200087D0300081E
:100120000902000809020008090200080902000883
:100130000902000809020008090200080902000873
:100140000902000809020008090200080902000863
:100150000902000809020008090200080902000853
:100160000902000809020008090200080902000843
:100170000902000809020008090200080902000833
:10018000090200080902000880B483B000AF78605B
:100190000B467B807B88C3F308039AB27B689A8006
:1001A0000C37BD465DF8047B704700BF80B582B058
:1001B00000AF104B7B60104B3B6007E03B681A1DA3
:1001C0003A607A68111D796012681A603A680B4BC0
:1001D0009A42F3D30A480B494FF000028842B8BF55
:1001E00040F8042BFFF6FAAF00F05EF90837BD4681
:1001F00080BD00BF64100008000000200000002047
:10020000000000205C00002080B400AFFEE700BFCB
:1002100080B483B000AF4D4B4C4A126842F4700278
:100220001A6000237B6002E07B6801337B607B689F
:10023000B3F5801FF8D3464B454A926842F4144206
:100240009A60434B424A126842F480321A6000BFFF
:100250003F4B1B6803F40033002BF9D03C4B3D4A65
:100260005A603B4B3A4A126842F080721A6000BFF3
:10027000374B1B6803F00073002BF9D0364B40F26C
:1002800005621A60324B324A926842F002029A606A
:1002900000BF2F4B9B6803F00F030A2BF9D12C4BA7
:1002A0002B4A126B42F01F021A632C4B2C4A1A6025
:1002B0002A4B4FF0FF329A602A4B2B4A1A62294B85
:1002C000284A126842F428421A60214B204A526C94
:1002D00042F480525A64254B40221A60234B4FF05F
:1002E000FF329A60214B08221A83214B40F67F325D
:1002F0001A801F4B00229A80154B154A126C42F04F
:1003000020021A641B4B80221A801A4B40F247329B
:100310001A85184B0122DA62164B01229A81164B7C
:100320004FF400025A60134B124A128892B242F004
:10033000010292B21A800B4B0A4A126822F00302A1
:100340001A600C37BD465DF8047B704788ED00E00D
:1003500000380240042A4007003C0240000C0240E2
:1003600000005555000002400000505500100240AA
:10037000003001400014004000E100E080B400AF14
:10038000034B00221A82BD465DF8047B704700BF14
:100390000014004080B485B000AF0346FB80174BCB
:1003A00008225A83164B1B899BB2FB73144BFA88A5
:1003B0009A8100BF124B1B899BB203F00103002BF3
:1003C000F8D000BF0E4B1B899BB203F08003002BBB
:1003D000F8D10B4B9B899BB2FB7300BF084B1B8969
:1003E0009BB2022BFAD1054B08221A83FB7B5BB22E
:1003F00018461437BD465DF8047B70470010024074
:100400000030014080B483B000AF786000BF7B68EB
:100410005A1E7A60002BFAD10C37BD465DF8047B7A
:10042000704700BF80B582B000AF02460B46FA713C
:10043000BB71104B08225A830F4BFA7902F03F022E
:10044000120291B2BA7992B20A4392B292B29A81EE
:1004500000BF094B1B899BB203F00203002BF8D0AD
:1004600042F21070FFF7CEFF024B08221A830837C2
:10047000BD4680BD001002400030014080B582B012
:1004800000AF0346FB71FB7903F03F0343F08003A9
:100490001B029BB21BB21846FFF77CFF03461846AF
:1004A0000837BD4680BD00BF80B582B000AFFFF702
:1004B000AFFE00F0EBF8644800F044F90F20FFF7BE
:1004C000DDFF03463B2B40F0BD8020204721FFF796
:1004D000A9FF2720FFF7D2FF0346BB71BB7903F0CA
:1004E0000103002B06D02920FFF7C8FF0346DAB22C
:1004F000564B1A70BB7903F00203002B06D02B2059
:10050000FFF7BCFF0346DAB2514B1A70BB7903F018
:100510000403002B06D02D20FFF7B0FF0346DAB20C
:100520004C4B1A700023FB7109E0FB79FA79013218
:100530004949895C484AD154FB790133FB71FB7905
:10054000092BF2D9414B1A78434B5A720023FB71A5
:1005500009E0FB79FA7901324049895C3F4AD1547C
:10056000FB790133FB71FB79092BF2D9384B1A78EF
:100570003A4B5A7200F096F903461A46334B1A70FA
:1005800000F0E2F903461A46314B1A702F4B1B78E4
:10059000184600F0F3FA0246314B1A60304B1B68E4
:1005A0001846304900F042FB03461A462C4B1A60AD
:1005B0002B4B1B68184600F0FFFC03461A462A4BDB
:1005C0001A60234B1B78184600F0D8FA0246274BD6
:1005D0001A60264B1B681846224900F027FB034689
:1005E0001A46224B1A60214B1B68184600F0E4FCA7
:1005F00003461A461E4B1A601E4800F0A3F81A4B19
:100600001B68184600F0D4F81B4800F09BF81B4804
:1006100000F098F81A4800F095F8154B1B6818463A
:1006200000F0C6F8144800F08DF8144800F08AF87D
:10063000144800F087F8144800F084F8322000F0E5
:1006400095F846E7FEE700BF4410000814000020BC
:10065000340000202C000020480000201C00002056
:100660002800002096B2B43F38000020300000205F
:100670005400002050100008000000205410000812
:10068000581000085C1000086010000880B400AF2B
:100690001C4B1C4A126C42F480221A64194B194AF2
:1006A000126A42F480221A62174B184A5A62164A9A
:1006B000154B1B6843F02A5343F400131360114B8E
:1006C000104A126A22F480221A62114A104B1B88C7
:1006D0009BB223F47F7323F003039BB213800C4B74
:1006E00041F212121A810A4A094B9B899BB243F4C8
:1006F000005343F00C039BB29381BD465DF8047B2D
:10070000704700BF003802400004024000777707BE
:100710000048004080B483B000AF0346FB7100BFC7
:10072000074B1B889BB203F08003002BF8D0044BCF
:10073000FA7992B29A800C37BD465DF8047B704717
:100740000048004080B582B000AF786007E07B6869
:100750001B781846FFF7DEFF7B6801337B607B6800
:100760001B78002BF3D10837BD4680BD80B485B01F
:1007700000AF78600023FB600023BB600023FB60B8
:100780000DE00023BB6002E0BB680133BB60BA68C8
:1007900042F2C3039A42F7DDFB680133FB60FA685B
:1007A0007B689A42EDDB1437BD465DF8047B7047E9
:1007B00080B489B000AF786000237B610023FB61C7
:1007C0000023BB610023BB600023FB6000233B616F
:1007D000324B00221A70314B00221A702F4B00222C
:1007E0005A702E4B00229A702C4B0022DA70002394
:1007F000BB612EE079682A4BA3FB0123DA0813467C
:100800009B0013445B00CA1A7A617B697A68D31A29
:100810007B607A68224BA3FB0213DB087B607B6959
:10082000DBB23033DAB207F10801BB690B441A704E
:10083000BB69013307F120021344002203F8182C8E
:10084000BB69FB617B68002B00D105E0BB6901330C
:10085000BB61BB69312BCDDD0023BB6113E0FA69BD
:10086000BB69D31A07F120010B4413F8182C0B496C
:10087000BB690B441A70BB690133084A0021D1548B
:10088000BB690133BB61FB695A1CBB699A42E6DC58
:100890002437BD465DF8047B704700BF0000002090
:1008A000CDCCCCCC80B584B000AF0023FB6000235E
:1008B000BB604FF000037B600023FB601AE01F4A1F
:1008C000FB6813441B78DBB25BB2002B08DA1B4ACF
:1008D000FB6813441B78FF3BBA681344BB6006E017
:1008E000164AFB6813441B78BA681344BB60FB6864
:1008F0000133FB60FB68092BE1DDB86800F042F9C9
:10090000034618460E4900F045FA03467B607868B6
:100910004FF0000100F028FB0346002B05D078685B
:10092000084900F07BF803467B60786800F06AFBBA
:100930000346DBB218461037BD4680BD4800002094
:100940000000204100007F4380B584B000AF002349
:10095000FB600023BB604FF000037B600023FB6063
:100960001AE01F4AFB6813441B78DBB25BB2002B12
:1009700008DA1B4AFB6813441B78FF3BBA68134430
:10098000BB6006E0164AFB6813441B78BA68134440
:10099000BB60FB680133FB60FB68092BE1DDB868D5
:1009A00000F0F0F8034618460E4900F0F3F903464C
:1009B0007B6078684FF0000100F0D6FA0346002B08
:1009C00005D07868084900F029F803467B6078680C
:1009D00000F018FB0346DBB218461037BD4680BD59
:1009E0001C0000200000204100007F4380B582B041
:1009F00000AF064B9B889BB2FB71FB799BB203480F
:100A00001946FFF7C1FB0837BD4680BD0010014005
:100A100080F0004002E000BF81F0004142001FBFB3
:100A20005FEA410392EA030F7FEA226C7FEA236CBC
:100A30006AD04FEA1262D2EB1363C1BFD2184140B1
:100A400048404140B8BF5B42192B88BF704710F047
:100A5000004F40F4000020F07F4018BF404211F0EA
:100A6000004F41F4000121F07F4118BF494292EA52
:100A7000030F3FD0A2F1010241FA03FC10EB0C007E
:100A8000C3F1200301FA03F100F0004302D549420B
:100A900060EB4000B0F5000F13D3B0F1807F06D3B8
:100AA00040084FEA310102F10102FE2A51D2B1F1B0
:100AB000004F40EBC25008BF20F0010040EA0300A5
:100AC0007047490040EB000010F4000FA2F1010252
:100AD000EDD1B0FA80FCACF1080CB2EB0C0200FADC
:100AE0000CF0AABF00EBC25052421843BCBFD0402A
:100AF0001843704792F0000F81F4000106BF80F4A4
:100B000000000132013BB5E74FEA41037FEA226C66
:100B100018BF7FEA236C21D092EA030F04D092F031
:100B2000000F08BF0846704790EA010F1CBF002065
:100B3000704712F07F4F04D1400028BF40F00040C2
:100B4000704712F100723CBF00F50000704700F0E2
:100B5000004343F0FE4040F4000070477FEA226209
:100B600016BF08467FEA23630146420206BF5FEADA
:100B7000412390EA010F40F4800070474FF00003DA
:100B800004E000BF10F0004348BF40425FEA000CA1
:100B900008BF704743F0964301464FF000001CE049
:100BA00050EA010208BF70474FF000030AE000BF9F
:100BB00050EA010208BF704711F0004302D54042DD
:100BC00061EB41015FEA010C02BF8446014600204F
:100BD00043F0B64308BFA3F18053A3F50003BCFA6A
:100BE0008CF2083AA3EBC25310DB01FA02FC634417
:100BF00000FA02FCC2F12002BCF1004F20FA02F21E
:100C000043EB020008BF20F00100704702F1200210
:100C100001FA02FCC2F1200250EA4C0021FA02F271
:100C200043EB020008BF20EADC7070474FF0FF0C76
:100C30001CEAD0521EBF1CEAD15392EA0C0F93EA71
:100C40000C0F6FD01A4480EA010C400218BF5FEA13
:100C500041211ED04FF0006343EA501043EA511186
:100C6000A0FB01310CF00040B1F5000F3EBF490080
:100C700041EAD3715B0040EA010062F17F02FD2A84
:100C80001DD8B3F1004F40EBC25008BF20F0010067
:100C9000704790F0000F0CF0004C08BF49024CEA7E
:100CA000502040EA51207F3AC2BFD2F1FF0340EA10
:100CB000C250704740F400004FF00003013A5DDC81
:100CC00012F1190FDCBF00F000407047C2F10002C2
:100CD000410021FA02F1C2F1200200FA02FC5FEAAF
:100CE000310040F1000053EA4C0308BF20EADC70F9
:100CF000704792F0000F00F0004C02BF400010F46B
:100D0000000F013AF9D040EA0C0093F0000F01F017
:100D1000004C02BF490011F4000F013BF9D041EA39
:100D20000C018FE70CEAD15392EA0C0F18BF93EA3B
:100D30000C0F0AD030F0004C18BF31F0004CD8D165
:100D400080EA010000F00040704790F0000F17BFEC
:100D500090F0004F084691F0000F91F0004F14D032
:100D600092EA0C0F01D142020FD193EA0C0F03D18A
:100D70004B0218BF084608D180EA010000F000408D
:100D800040F0FE4040F40000704740F0FE4040F468
:100D9000400070474FF0FF0C1CEAD0521EBF1CEA07
:100DA000D15392EA0C0F93EA0C0F69D0A2EB030225
:100DB00080EA010C49024FEA402037D04FF08053BF
:100DC00043EA111143EA10130CF000408B4238BF84
:100DD0005B0042F17D024FF4000C8B4224BF5B1A92
:100DE00040EA0C00B3EB510F24BFA3EB510340EAE0
:100DF0005C00B3EB910F24BFA3EB910340EA9C008E
:100E0000B3EBD10F24BFA3EBD10340EADC001B01FD
:100E100018BF5FEA1C1CE0D1FD2A3FF650AF8B42A1
:100E200040EBC25008BF20F0010070470CF0004CAE
:100E30004CEA50207F32C2BFD2F1FF0340EAC250D9
:100E4000704740F400004FF00003013A37E792F09A
:100E5000000F00F0004C02BF400010F4000F013AF8
:100E6000F9D040EA0C0093F0000F01F0004C02BFF3
:100E7000490011F4000F013BF9D041EA0C0195E75C
:100E80000CEAD15392EA0C0F08D142027FF47DAFF5
:100E900093EA0C0F7FF470AF084676E793EA0C0FE5
:100EA00004D14B023FF44CAF08466EE730F0004CE3
:100EB00018BF31F0004CCAD130F000427FF45CAF73
:100EC00031F000437FF43CAF5FE700BF4FF0FF3CE1
:100ED00006E000BF4FF0010C02E000BF4FF0010C34
:100EE0004DF804CD4FEA40024FEA41037FEA226CFD
:100EF00018BF7FEA236C11D001B052EA530C18BF1F
:100F000090EA010F58BFB2EB030088BFC81738BF83
:100F10006FEAE17018BF40F0010070477FEA226C71
:100F200002D15FEA402C05D17FEA236CE4D15FEA6D
:100F3000412CE1D05DF8040B704700BF84460846A1
:100F40006146FFE70FB5FFF7C9FF002848BF10F162
:100F5000000F0FBD4DF808EDFFF7F4FF0CBF0120A7
:100F600000205DF808FB00BF4DF808EDFFF7EAFF31
:100F700034BF012000205DF808FB00BF4DF808EDEC
:100F8000FFF7E0FF94BF012000205DF808FB00BFE1
:100F90004DF808EDFFF7D2FF94BF012000205DF867
:100FA00008FB00BF4DF808EDFFF7C8FF34BF012074
:100FB00000205DF808FB00BF4FEA4002B2F1FE4F8F
:100FC0000FD34FF09E03B3EB12620DD94FEA00230B
:100FD00043F0004310F0004F23FA02F018BF4042E4
:100FE00070474FF00000704712F1610F01D14202CB
:100FF00005D110F0004008BF6FF0004070474FF07F
:101000000000704742000ED2B2F1FE4F0BD34FF0FA
:101010009E03B3EB126209D44FEA002343F000436E
:1010200023FA02F070474FF00000704712F1610F91
:1010300001D1420202D14FF0FF3070474FF0000063
:10104000704700BF7374617274200D0A00000000C5
:10105000783D00002C000000793D00007A3D300012
:041060000D0A000075
:0400000508000000EF
:00000001FF
